S00B00006C63642E73726563E6
S11300000C9434000C9451000C9451000C94510045
S11300100C9451000C9451000C9451000C94510018
S11300200C9451000C9432010C9451000C94510026
S11300300C9451000C9451000C9451000C945100F8
S11300400C94CB010C9451000C9451000C9451006D
S11300500C9451000C9451000C9451000C945100D8
S11300600C9451000C94510011241FBECFEFD8E022
S1130070DEBFCDBF11E0A0E0B1E0E2E8F4E002C0F1
S113008005900D92A233B107D9F721E0A2E3B1E0C4
S113009001C01D92A833B207E1F70E94FA000C9444
S11300A03F020C940000299A85E08A95F1F700003C
S11300B029980895CF93C82F662311F0289A01C078
S11300C02898549A559A569A579A5F985E985D98CC
S11300D05C98CC230CF45F9AC6FD5E9AC5FD5D9ACC
S11300E0C4FD5C9A0E9453005F985E985D985C988A
S11300F0C3FD5F9AC2FD5E9AC1FD5D9AC0FD5C9A24
S11301000E9453005C9A5D9A5E9A5F9A87EB9BE02B
S11301100197F1F700C00000CF91089560E00E94BC
S11301205A00089561E00E945A000895611104C0C4
S113013080580E948E00089580540E948E00089575
S113014081E00E948E00089561E00E945A000895A3
S1130150CF93DF93EC012196FC018081882329F061
S11301600E94A40089918111FBCFDF91CF91089562
S1130170CF93C82F209A559A219A549A559A569AF1
S1130180579A8FEF99EF0197F1F700C000005D9A3D
S11301905C9A0E9453008FE19EE40197F1F700C03E
S11301A000000E9453008FEF90E00197F1F700C028
S11301B000000E9453008FEF90E00197F1F700C018
S11301C000005C980E9453008FEF90E00197F1F7D4
S11301D000C0000088E20E948E0088E00E948E0029
S11301E00E94A00086E00E948E008C2F0E948E0048
S11301F0CF9108958CE00E94B80080E40E948E00A4
S1130200C1E0D1E009E211E089910E949200C01797
S1130210D107D1F780E80E948E008CE00E94B800DC
S113022060E081E00E94960089E291E00E94A800CB
S1130230E1EBF0E080818D7F808380818560808325
S1130240E0E7F0E080818160808385B58D7F85BDA6
S113025085B5856085BDEEE6F0E0808181608083B0
S11302607894FFCF1F920F920FB60F9211242F9301
S11302703F934F935F936F937F938F939F93AF932A
S1130280BF93EF93FF93CF93DF93CDB7DEB726975A
S1130290DEBFCDBF80E290E29A8389839C838B8307
S11302A09E838D83809137018F5F863018F480930D
S11302B0370158C010923701809136018F5F8A3020
S11302C018F4809336012DC01092360180913501C7
S11302D08F5F8C3318F48093350102C0109235017E
S11302E080913501889FC00111249093340180933B
S11302F033014AE0BE016D5F7F4F0E940A0260E055
S11303008BE00E94960080913301909134018031FA
S11303109E4018F080E30E94A400CE0103960E9440
S1130320A80060E087E00E94960080913601805D1D
S11303300E94A400809135014AE0BE016F5F7F4FA7
S113034090E00E940A0260E084E00E94960080919E
S113035035018A3018F480E30E94A400CE0101968E
S11303600E94A80026960FB6F894DEBF0FBECDBF3C
S1130370DF91CF91FF91EF91BF91AF919F918F91B9
S11303807F916F915F914F913F912F910F900FBE8D
S11303900F901F9018951F920F920FB60F92112471
S11303A02F933F934F935F936F937F938F939F9379
S11303B0AF93BF93EF93FF938091000161E08F5F50
S11303C00E949600809132010E94A4008091000155
S11303D08F5F80930001893061F4809132018F5FD7
S11303E0853018F48093320102C0109232011092C9
S11303F00001FF91EF91BF91AF919F918F917F91F8
S11304006F915F914F913F912F910F900FBE0F907D
S11304101F901895BB274A3031F4992322F4BDE28A
S1130420909581959F4F0C941602BB27FB0155278D
S1130430AA27880F991FAA1FA41710F0A41B83953D
S11304405051B9F7A05DAA3308F0A95DA1930097B4
S113045079F7B111B1931192CB010C942F02DC0105
S1130460FC01672F71917723E1F7329704C07C91E7
S11304706D9370836291AE17BF07C8F30895F89423
S1050480FFCFA8
S1130482091F1F1F1F1F1F1F1F1E1E1E1E1E1E1E93
S11304921E1C1C1C1C1C1C1C1C18181818181818B0
S11304A218101010101010101030303A30302E3056
S10504B2000044
S9030000FC
