S00C00006C6564732E7372656370
S11300000C9434000C943E000C943E000C943E007E
S11300100C943E000C943E000C943E000C943E0064
S11300200C943E000C943E000C943E000C943E0054
S11300300C943E000C943E000C943E000C943E0044
S11300400C943E000C943E000C943E000C943E0034
S11300500C943E000C943E000C943E000C943E0024
S11300600C943E000C943E0011241FBECFEFD8E048
S1130070DEBFCDBF0E9440000C946F000C940000C2
S1130080259A2D98399A88B1827088B92D9A2FEFC4
S113009083ED90E3215080409040E1F700C00000E0
S11300A02D982FEF83ED90E3215080409040E1F7AD
S11300B000C0000041982FEF83ED90E32150804071
S11300C09040E1F700C00000419A2FEF83ED90E3E8
S11300D0215080409040E1F700C00000D7CFF89451
S10500E0FFCF4C
S9030000FC
