S0120000696E74657272757074732E73726563B2
S11300000C9434000C9446000C9446000C94460066
S11300100C9446000C9446000C9446000C94460044
S11300200C9446000C9446000C9446000C94460034
S11300300C9446000C9446000C9446000C94460024
S11300400C9446000C9446000C9446000C94460014
S11300500C9446000C9446000C9446000C94460004
S11300600C9446000C94460011241FBECFEFD8E038
S1130070DEBFCDBF21E0A0E0B1E001C01D92A230FF
S1130080B207E1F70E946D000C94B6000C940000D6
S1130090FC01408121E030E002C0220F331F6A9549
S11300A0E2F7242B20830895FC01908121E030E0C5
S11300B002C0220F331F6A95E2F72095292320837B
S11300C00895FC01408121E030E002C0220F331F7B
S11300D06A95E2F724272083089567E084E290E09C
S11300E00E94480067E085E290E00E94540066E0C8
S11300F084E290E00E94480066E085E290E00E947D
S1130100540065E084E290E00E94480065E085E2E6
S113011090E00E945400809100019091010185308B
S1130120910528F01092010110920001F4CF01967C
S113013090930101809300018130910531F467E0CF
S113014084E290E00E946100E6CF8230910531F4B0
S113015066E084E290E00E946100DDCF0397D9F667
S113016065E084E290E00E946100D5CFF894FFCF6F
S9030000FC
