S01B00006164635F6D756C7469706C655F696E707574732E7372656314
S11300000C9434000C9451000C9451000C94510045
S11300100C9451000C9451000C9451000C94510018
S11300200C9451000C9451000C9451000C94510008
S11300300C9451000C941E010C9451000C9451002A
S11300400C9451000C9451000C9451000C945100E8
S11300500C9451000C9433010C9451000C945100F5
S11300600C9451000C94510011241FBECFEFD8E022
S1130070DEBFCDBF11E0A0E0B1E0E2EEF3E002C0EC
S113008005900D92A630B107D9F721E0A6E0B1E0C2
S113009001C01D92AA30B207E1F70E94F6000C9449
S11300A0EF010C940000299A85E08A95F1F700008D
S11300B029980895CF93C82F662311F0289A01C078
S11300C02898549A559A569A579A5F985E985D98CC
S11300D05C98CC230CF45F9AC6FD5E9AC5FD5D9ACC
S11300E0C4FD5C9A0E9453005F985E985D985C988A
S11300F0C3FD5F9AC2FD5E9AC1FD5D9AC0FD5C9A24
S11301000E9453005C9A5D9A5E9A5F9A87EB9BE02B
S11301100197F1F700C00000CF91089560E00E94BC
S11301205A000895611104C080580E948E000895F9
S113013080540E948E00089581E00E948E000895EC
S113014061E00E945A000895CF93DF93EC01219659
S1130150FC018081882329F00E94A00089918111EB
S1130160FBCFDF91CF910895CF93C82F209A559A52
S1130170219A549A559A569A579A8FEF99EF019764
S1130180F1F700C000005D9A5C9A0E9453008FE171
S11301909EE40197F1F700C000000E9453008FEF26
S11301A090E00197F1F700C000000E9453008FEF28
S11301B090E00197F1F700C000005C980E945300A2
S11301C08FEF90E00197F1F700C0000088E20E94F1
S11301D08E0088E00E948E000E949C0086E00E94AF
S11301E08E008C2F0E948E00CF9108958CE00E9487
S11301F0B400ECE7F0E080818F77808380818064B5
S113020080838081807F8083EAE7F0E0808180685A
S11302108083808188608083808187608083E1E837
S1130220F0E080818C7F8083808184608083EFE62E
S1130230F0E08081816080837894FFCF1F920F92D9
S11302400FB60F9211248F93EF93FF93EAE7F0E038
S1130250808180648083FF91EF918F910F900FBE16
S11302600F901F9018951F920F920FB60F921124A2
S11302702F933F934F935F936F937F938F939F93AA
S1130280AF93BF93EF93FF93CF93DF93CDB7DEB7D5
S11302902A97DEBFCDBF85E0E0E0F1E0DE011196F4
S11302A001900D928A95E1F785E0E0E0F1E0DE014E
S11302B0169601900D928A95E1F780917C00803426
S11302C019F0813469F03AC08091780090917900F6
S11302D0909309018093080181E480937C0031C0EC
S11302E080917800909179009093070180930601A2
S11302F04AE0BE016A5F7F4F0E94BA014AE0BE0134
S11303006F5F7F4F80910801909109010E94BA01AB
S11303100E949C0060E081E00E949200CE01019660
S11303200E94A40060E088E00E949200CE0106963C
S11303300E94A40080E480937C0003C080E4809346
S11303407C002A960FB6F894DEBF0FBECDBFDF91B6
S1130350CF91FF91EF91BF91AF919F918F917F9139
S11303606F915F914F913F912F910F900FBE0F901E
S11303701F901895BB274A3031F4992322F4BDE22B
S1130380909581959F4F0C94C601BB27FB0155277F
S1130390AA27880F991FAA1FA41710F0A41B8395DE
S11303A05051B9F7A05DAA3308F0A95DA193009755
S11303B079F7B111B1931192CB010C94DF01DC01F7
S11303C0FC01672F71917723E1F7329704C07C9188
S11303D06D9370836291AE17BF07C8F30895F894C4
S10503E0FFCF49
S10903E230303030000051
S9030000FC
