:100000000C9434000C9451000C9451000C94510049
:100010000C9451000C9451000C9451000C9451001C
:100020000C9451000C94D7040C9451000C94510082
:100030000C9451000C9494040C9451000C945100B5
:100040000C9451000C9451000C94F7060C94250765
:100050000C9451000C9468060C9451000C945100BF
:100060000C9451000C94510011241FBECFEFD8E026
:10007000DEBFCDBF11E0A0E0B1E0E0E6F1E102C0FB
:1000800005900D92A837B107D9F721E0A8E7B1E0B4
:1000900001C01D92AC3CB207E1F70E94A9030C9489
:1000A000AE080C940000ECE7F0E080818F7780834D
:1000B0008081806480838081807F8083EAE7F0E0B4
:1000C0008081806880838081886080838081887F50
:1000D0008083089583339105F8F09C0123533109FF
:1000E0002B373105D8F02B57310927393105C0F0AE
:1000F000275931092A3C3105A8F02A5C31092633F9
:10010000314090F08554934021E08B3B910508F4F9
:1001100020E0822F8195089586E0089588E0089573
:1001200082E0089584E0089585E00895FC0140810F
:1001300021E030E002C0220F331F6A95E2F7242B42
:1001400020830895FC01908121E030E002C0220F5D
:10015000331F6A95E2F72095292320830895FC0137
:10016000408121E030E002C0220F331F6A95E2F7A0
:10017000242B20830895299A85E08A95F1F70000C1
:1001800029980895CF93C82F662311F0289A01C0AB
:100190002898549A559A569A579A5F985E985D98FF
:1001A0005C98CC230CF45F9AC6FD5E9AC5FD5D9AFF
:1001B000C4FD5C9A0E94BB005F985E985D985C9855
:1001C000C3FD5F9AC2FD5E9AC1FD5D9AC0FD5C9A57
:1001D0000E94BB005C9A5D9A5E9A5F9A87EB9BE0F7
:1001E0000197F1F700C00000CF91089560E00E94F0
:1001F000C2000895611104C080580E94F60008955D
:1002000080540E94F600089581E00E94F60008954F
:1002100061E00E94C2000895CF93DF93EC01219624
:10022000FC018081882329F00E94080189918111B5
:10023000FBCFDF91CF910895CF93C82F209A559A85
:10024000219A549A559A569A579A8FEF99EF019797
:10025000F1F700C000005D9A5C9A0E94BB008FE13C
:100260009EE40197F1F700C000000E94BB008FEFF1
:1002700090E00197F1F700C000000E94BB008FEFF3
:1002800090E00197F1F700C000005C980E94BB006D
:100290008FEF90E00197F1F700C0000088E20E9424
:1002A000F60088E00E94F6000E94040186E00E94A9
:1002B000F6008C2F0E94F600CF910895FF920F93C5
:1002C0001F93CF93DF93CDB7DEB764970FB6F89443
:1002D000DEBF0FBECDBFF62E042F122F95E0EDE14D
:1002E000F1E0DE01119601900D929A95E1F795E00B
:1002F000EDE1F1E0DE01169601900D929A95E1F79D
:1003000095E0EDE1F1E0DE011B9601900D929A95EA
:10031000E1F795E0EDE1F1E0DE01509601900D92FC
:100320009A95E1F74AE0BE016F5F7F4F90E00E942F
:1003300079084AE0BE016A5F7F4F8F2D90E00E94EE
:1003400079084AE0BE01655F7F4F802F90E00E94F0
:1003500079084AE0BE01605F7F4F812F90E00E94E4
:10036000790860E080E00E94FA0085E091E00E9458
:100370000C01CE0101960E940C0189E091E00E94DF
:100380000C0160E088E00E94FA008DE091E00E949C
:100390000C01CE010B960E940C0189E091E00E94B5
:1003A0000C0161E080E00E94FA0081E191E00E948E
:1003B0000C01CE0106960E940C0185E191E00E949D
:1003C0000C0161E088E00E94FA0089E191E00E945E
:1003D0000C01CE0140960E940C0189E091E00E9440
:1003E0000C0164960FB6F894DEBF0FBECDBFDF914F
:1003F000CF911F910F91FF9008950F931F93CF936B
:10040000DF93CDB7DEB72F970FB6F894DEBF0FBEE0
:10041000CDBF062F142F95E0EDE1F1E0DE0111963E
:1004200001900D929A95E1F795E0EDE1F1E0DE01A2
:10043000169601900D929A95E1F795E0EDE1F1E0C5
:10044000DE011B9601900D929A95E1F74AE0BE01FC
:100450006F5F7F4F90E00E9479084AE0BE016A5FBB
:100460007F4F802F90E00E9479084AE0BE01655FCF
:100470007F4F812F90E00E94790860E080E00E9429
:10048000FA0082E291E00E940C01CE0101960E94E6
:100490000C0185E791E00E940C01CE0106960E94B6
:1004A0000C0189E091E00E940C0161E080E00E9473
:1004B000FA008DE291E00E940C01CE010B960E94A1
:1004C0000C0189E091E00E940C0161E08CE00E9447
:1004D000FA0087E391E00E940C012F960FB6F89482
:1004E000DEBF0FBECDBFDF91CF911F910F91089559
:1004F0000F931F93CF93DF93CDB7DEB72F970FB630
:10050000F894DEBF0FBECDBF062F142F95E0EDE1AE
:10051000F1E0DE01119601900D929A95E1F795E0D8
:10052000EDE1F1E0DE01169601900D929A95E1F76A
:1005300095E0EDE1F1E0DE011B9601900D929A95B8
:10054000E1F74AE0BE016F5F7F4F90E00E947908BB
:100550004AE0BE016A5F7F4F802F90E00E947908D9
:100560004AE0BE01655F7F4F812F90E00E947908CD
:1005700060E080E00E94FA008CE391E00E940C01B0
:10058000CE0101960E940C0185E791E00E940C01CA
:10059000CE0106960E940C0185E191E00E940C01BB
:1005A00061E080E00E94FA008DE291E00E940C017F
:1005B000CE010B960E940C0185E191E00E940C0196
:1005C0002F960FB6F894DEBF0FBECDBFDF91CF914F
:1005D0001F910F9108951F93CF93DF93CDB7DEB78F
:1005E0002A970FB6F894DEBF0FBECDBF162F95E049
:1005F000EDE1F1E0DE01119601900D929A95E1F79F
:1006000095E0EDE1F1E0DE01169601900D929A95EC
:10061000E1F74AE0BE016F5F7F4F90E00E947908EA
:100620004AE0BE016A5F7F4F812F90E00E94790807
:1006300060E080E00E94FA0088E491E00E940C01F2
:10064000CE0101960E940C0189E091E00E940C010C
:1006500061E080E00E94FA008DE291E00E940C01CE
:10066000CE0106960E940C0189E091E00E940C01E7
:1006700061E08CE00E94FA0087E391E00E940C01A7
:100680002A960FB6F894DEBF0FBECDBFDF91CF9193
:100690001F9108951F93CF93DF93CDB7DEB72A97AD
:1006A0000FB6F894DEBF0FBECDBF162F95E0EDE17B
:1006B000F1E0DE01119601900D929A95E1F795E037
:1006C000EDE1F1E0DE01169601900D929A95E1F7C9
:1006D0004AE0BE016F5F7F4F90E00E9479084AE0D8
:1006E000BE016A5F7F4F812F90E00E94790860E031
:1006F00080E00E94FA0086E591E00E940C01CE01A4
:1007000001960E940C0183E691E00E940C0161E0D9
:1007100080E00E94FA008DE291E00E940C01CE017F
:1007200006960E940C0189E091E00E940C0161E0B4
:100730008CE00E94FA0087E391E00E940C012A9667
:100740000FB6F894DEBF0FBECDBFDF91CF911F91E2
:1007500008958CE00E941C010E94A5060E9453008F
:1007600060E080E00E94FA0086E691E00E940C01C1
:10077000E1E8F0E080818B7F8083808183608083EB
:10078000EFE6F0E0808181608083E1EBF0E0808142
:1007900087608083E0E7F0E08081816080837894E7
:1007A00062E08AE290E00E94960062E08BE290E0D4
:1007B0000E94A20061E08AE290E00E94960061E05F
:1007C0008BE290E00E94A20060E08AE290E00E944A
:1007D000960060E08BE290E00E94A20063E08AE273
:1007E00090E00E94960063E08BE290E00E94A200FD
:1007F0002091860130E0409104018091010190E058
:10080000840F911D281739072CF060E08BE290E0EF
:100810000E94AF002091860130E08091040190E0B9
:1008200040910101841B9109821793072CF060E02D
:100830008BE290E00E94A2002091840130E0409180
:1008400003018091010190E0840F911D2817390761
:1008500054F062E08BE290E00E94AF0060E08BE237
:1008600090E00E94AF002091840130E0809103016C
:1008700090E040910101841B91098217930754F085
:1008800062E08BE290E00E94A20060E08BE290E0E8
:100890000E94A2002091810130E0409102018091EC
:1008A000010190E0840F911D281739072CF061E0B9
:1008B0008BE290E00E94A2002091810130E08091C3
:1008C000020190E040910101841B91098217930776
:1008D0002CF061E08BE290E00E94AF00209180015B
:1008E00030E0409179018091010190E0840F911DE9
:1008F000281739072CF063E08BE290E00E94A200F9
:100900002091800130E08091790190E040910101D7
:10091000841B9109821793070CF46ACF63E08BE282
:1009200090E00E94AF0064CF1F920F920FB60F921B
:1009300011242F933F934F935F936F937F938F93E4
:100940009F93AF93BF93EF93FF9388EB0E94B406FE
:1009500080E00E94D2060E94F30689EB0E94B40652
:100960000E94DD06809386010E94DD06809385014A
:100970000E94DD06809384010E94DD06809383013E
:100980000E94E806809382010E94F306FF91EF9196
:10099000BF91AF919F918F917F916F915F914F9197
:1009A0003F912F910F900FBE0F901F9018951F929F
:1009B0000F920FB60F921124CF92DF92EF92FF9217
:1009C0002F933F934F935F936F937F938F939F9357
:1009D000AF93BF93CF93EF93FF93809178018F5F95
:1009E000823318F48093780158C110927801609195
:1009F0007C0170917D0180E090E00E947E0720E004
:100A000030E048EC5DE30E94E4076B017C016091FB
:100A10007E0170917F0180E090E00E947E0720E0DF
:100A200030E048EC5DE30E94E4070E944F076093CA
:100A30008101C701B6010E944F0760938001809138
:100A40007A0190917B010E946A00C82F8091000179
:100A5000833009F464C028F4813051F0823041F1D0
:100A6000FDC0843009F492C0853009F4C4C0F6C0DA
:100A700020918001409181016091840180918601E3
:100A80000E945E01C53061F0C63031F0C43061F4BF
:100A900085E08093000101C182E080930001FDC0E8
:100AA00081E080930001F9C081E080930001F5C0EE
:100AB0004091040160918501809186010E94FD01B1
:100AC000C53029F128F4C230C9F0C43031F023C058
:100AD000C63039F0C83049F01EC081E08093000173
:100AE000DCC083E080930001D8C0809104018F3581
:100AF00008F0D3C08F5F80930401CFC080910401C0
:100B0000893208F4CAC0815080930401C6C081E0D4
:100B100080930001C2C082E080930001BEC040917A
:100B2000030160918301809184010E947802C530A5
:100B300029F128F4C230C9F0C43031F023C0C630E6
:100B400039F0C83049F01EC082E080930001A5C092
:100B500084E080930001A1C080910301883208F0F5
:100B60009CC08F5F8093030198C080910301803106
:100B700008F493C08150809303018FC081E080937B
:100B800000018BC083E08093000187C06091020167
:100B9000809181010E94EB02C53029F128F4C23016
:100BA000C9F0C43031F023C0C63039F0C83049F044
:100BB0001EC083E08093000170C085E08093000137
:100BC0006CC080910201863408F067C08F5F80930B
:100BD000020163C0809102018B3008F45EC0815035
:100BE000809302015AC081E08093000156C084E0E6
:100BF0008093000152C060917901809180010E9430
:100C00004A03C53019F128F4C230C1F0C43031F0C4
:100C100021C0C63039F0C83049F01CC084E0809350
:100C200000013BC081E08093000137C080917901D1
:100C3000843698F58F5F809379012FC08091790178
:100C40008B3058F181508093790127C081E08093E7
:100C5000000123C085E0809300011FC02091800126
:100C60004091810160918401809186010E945E0122
:100C7000C53061F0C63031F0C43061F485E0809356
:100C800000010BC082E08093000107C081E08093E7
:100C9000000103C081E080930001EAE7F0E0808179
:100CA00080648083FF91EF91CF91BF91AF919F912D
:100CB0008F917F916F915F914F913F912F91FF9015
:100CC000EF90DF90CF900F900FBE0F901F90189570
:100CD0001F920F920FB60F9211248F939F938091C2
:100CE0007C00813481F08234D1F0803421F5809110
:100CF00078009091790090937F0180937E0181E448
:100D000080937C001BC08091780090917900909333
:100D10007D0180937C0182E480937C000FC08091F0
:100D200078009091790090937B0180937A0180E420
:100D300080937C0003C080E480937C009F918F911E
:100D40000F900FBE0F901F90189587B18F7C87B9B9
:100D500088B1806388B9E9EBF0E080818C7F808383
:100D600088E98093B800089594EA9093BC00ECEB76
:100D7000F0E090819923ECF78093BB0084E88093A6
:100D8000BC00ECEBF0E080818823ECF79091B90097
:100D9000987F983129F081E0903419F480E008952B
:100DA00080E008958093BB0084E88093BC00ECEB66
:100DB000F0E080818823ECF7089584EC8093BC00F8
:100DC000ECEBF0E080818823ECF78091BB00089584
:100DD00084E88093BC00ECEBF0E080818823ECF7A2
:100DE0008091BB00089584E98093BC0008951F9210
:100DF0000F920FB60F9211242F938F939F93EF931F
:100E0000FF938091C0002091C6008C71E091890110
:100E1000EF5FEF7190918801E91739F0E093890154
:100E2000F0E0E457FE4F208301C082E090918701FB
:100E3000892B80938701FF91EF919F918F912F9143
:100E40000F900FBE0F901F9018951F920F920FB624
:100E50000F9211248F939F93EF93FF9390918B01A7
:100E600080918A01981769F0E0918A01EF5FEF7134
:100E7000E0938A01F0E0E455FE4F80818093C60044
:100E800005C0E1ECF0E080818F7D8083FF91EF91E0
:100E90009F918F910F900FBE0F901F9018950E94F9
:100EA000C30788F09F5798F0B92F9927B751B0F032
:100EB000E1F0660F771F881F991F1AF0BA95C9F7DE
:100EC00014C0B13091F00E94DD07B1E008950C9498
:100ED000DD07672F782F8827B85F39F0B93FCCF34B
:100EE000869577956795B395D9F73EF4909580955B
:100EF000709561957F4F8F4F9F4F0895E89409C07B
:100F000097FB3EF490958095709561957F4F8F4F3C
:100F10009F4F9923A9F0F92F96E9BB279395F69552
:100F2000879577956795B795F111F8CFFAF4BB0FD0
:100F300011F460FF1BC06F5F7F4F8F4F9F4F16C034
:100F4000882311F096E911C0772321F09EE8872FBE
:100F5000762F05C0662371F096E8862F70E060E07A
:100F60002AF09A95660F771F881FDAF7880F9695F3
:100F7000879597F9089557FD9058440F551F59F0DC
:100F80005F3F71F04795880F97FB991F61F09F3F76
:100F900079F087950895121613061406551FF2CF9F
:100FA0004695F1DF08C0161617061806991FF1CFEF
:100FB00086957105610508940895E894BB27662716
:100FC0007727CB0197F908950E94F7070C946808DA
:100FD0000E945A0838F00E94610820F0952311F011
:100FE0000C9451080C94570811240C94DE070E94AD
:100FF000BB0770F3959FC1F3950F50E0551F629F9B
:10100000F001729FBB27F00DB11D639FAA27F00D61
:10101000B11DAA1F649F6627B00DA11D661F829F88
:101020002227B00DA11D621F739FB00DA11D621F6D
:10103000839FA00D611D221F749F3327A00D611D8A
:10104000231F849F600D211D822F762F6A2F11246C
:101050009F5750409AF0F1F088234AF0EE0FFF1F9F
:10106000BB1F661F771F881F91505040A9F79E3FF6
:10107000510580F00C9451080C94DE075F3FE4F3B7
:10108000983ED4F3869577956795B795F795E7954C
:101090009F5FC1F7FE2B880F911D9695879597F955
:1010A000089597F99F6780E870E060E008959FEFEA
:1010B00080EC089500240A941616170618060906EF
:1010C000089500240A9412161306140605060895BE
:1010D000092E0394000C11F4882352F0BB0F40F446
:1010E000BF2B11F460FF04C06F5F7F4F8F4F9F4F86
:1010F0000895BB274A3031F4992322F4BDE290953C
:1011000081959F4F0C948508BB27FB015527AA2783
:10111000880F991FAA1FA41710F0A41B8395505184
:10112000B9F7A05DAA3308F0A95DA193009779F7FC
:10113000B111B1931192CB010C949E08DC01FC011A
:10114000672F71917723E1F7329704C07C916D93FB
:1011500070836291AE17BF07C8F30895F894FFCF6C
:1011600001013C143241483A0025202000534D3AF9
:101170000041543A00432020004C4C3A00303030BB
:1011800030004169722048756D2E3A20004E6F6D17
:10119000696E616C3A200020202020004169722095
:1011A00054656D702E3A2000536F696C204D6F6945
:1011B00073742E3A20004C69676874204C766C2E4C
:1011C0003A2000252000496E697469616C697A6172
:0811D00074696F6E2E2E000001
:00000001FF
