:100000000C9434000C9451000C9451000C94510049
:100010000C9451000C9451000C9451000C9451001C
:100020000C9451000C94B5030C9451000C945100A5
:100030000C9451000C9472030C9451000C945100D8
:100040000C9451000C9451000C94A6050C94D4050A
:100050000C9451000C9417050C9451000C94510011
:100060000C9451000C94510011241FBECFEFD8E026
:10007000DEBFCDBF11E0A0E0B1E0EEEBFEE002C0DC
:1000800005900D92AA35B107D9F721E0AAE5B1E0B4
:1000900001C01D92A13BB207E1F70E9440030C94FE
:1000A0005D070C940000ECE7F0E080818F7780839F
:1000B0008081806480838081807F8083EAE7F0E0B4
:1000C0008081806880838081886080838081887F50
:1000D00080830895299A85E08A95F1F70000299890
:1000E0000895CF93C82F662311F0289A01C028984D
:1000F000549A559A569A579A5F985E985D985C986C
:10010000CC230CF45F9AC6FD5E9AC5FD5D9AC4FDD2
:100110005C9A0E946A005F985E985D985C98C3FD47
:100120005F9AC2FD5E9AC1FD5D9AC0FD5C9A0E9415
:100130006A005C9A5D9A5E9A5F9A87EB9BE00197F2
:10014000F1F700C00000CF91089560E00E947100B7
:100150000895611104C080580E94A500089580543C
:100160000E94A500089581E00E94A500089561E025
:100170000E9471000895CF93DF93EC012196FC015A
:100180008081882329F00E94B70089918111FBCFDB
:10019000DF91CF910895CF93C82F209A559A219A35
:1001A000549A559A569A579A8FEF99EF0197F1F70B
:1001B00000C000005D9A5C9A0E946A008FE19EE494
:1001C0000197F1F700C000000E946A008FEF90E0F5
:1001D0000197F1F700C000000E946A008FEF90E0E5
:1001E0000197F1F700C000005C980E946A008FEF51
:1001F00090E00197F1F700C0000088E20E94A5009E
:1002000088E00E94A5000E94B30086E00E94A5003D
:100210008C2F0E94A500CF910895FF920F931F93FA
:10022000CF93DF93CDB7DEB764970FB6F894DEBFF8
:100230000FBECDBFF62E042F122F95E0E5E1F1E0C1
:10024000DE01119601900D929A95E1F795E0E5E1B6
:10025000F1E0DE01169601900D929A95E1F795E096
:10026000E5E1F1E0DE011B9601900D929A95E1F730
:1002700095E0E5E1F1E0DE01509601900D929A954E
:10028000E1F74AE0BE016F5F7F4F90E00E942807D0
:100290004AE0BE016A5F7F4F8F2D90E00E942807E1
:1002A0004AE0BE01655F7F4F802F90E00E942807E3
:1002B0004AE0BE01605F7F4F812F90E00E942807D7
:1002C00060E080E00E94A90081E091E00E94BB0014
:1002D000CE0101960E94BB0085E091E00E94BB0028
:1002E00060E088E00E94A90087E091E00E94BB00E6
:1002F000CE010B960E94BB0085E091E00E94BB00FE
:1003000061E080E00E94A9008BE091E00E94BB00C8
:10031000CE0106960E94BB008FE091E00E94BB00D8
:1003200061E088E00E94A90081E191E00E94BB00A9
:10033000CE0140960E94BB0085E091E00E94BB0088
:1003400064960FB6F894DEBF0FBECDBFDF91CF919C
:100350001F910F91FF9008950F931F93CF93DF93F9
:10036000CDB7DEB72F970FB6F894DEBF0FBECDBF67
:10037000062F142F95E0E5E1F1E0DE0111960190E2
:100380000D929A95E1F795E0E5E1F1E0DE01169630
:1003900001900D929A95E1F795E0E5E1F1E0DE013B
:1003A0001B9601900D929A95E1F74AE0BE016F5FAE
:1003B0007F4F90E00E9428074AE0BE016A5F7F4FAE
:1003C000802F90E00E9428074AE0BE01655F7F4FC2
:1003D000812F90E00E94280760E080E00E94A90041
:1003E0008AE191E00E94BB00CE0101960E94BB0011
:1003F00088E591E00E94BB00CE0106960E94BB00FA
:1004000085E091E00E94BB0061E080E00E94A900CD
:1004100085E291E00E94BB00CE010B960E94BB00DA
:1004200085E091E00E94BB002F960FB6F894DEBFE6
:100430000FBECDBFDF91CF911F910F9108950F9304
:100440001F93CF93DF93CDB7DEB72F970FB6F894F6
:10045000DEBF0FBECDBF062F142F95E0E5E1F1E022
:10046000DE01119601900D929A95E1F795E0E5E194
:10047000F1E0DE01169601900D929A95E1F795E074
:10048000E5E1F1E0DE011B9601900D929A95E1F70E
:100490004AE0BE016F5F7F4F90E00E9428074AE06C
:1004A000BE016A5F7F4F802F90E00E9428074AE0DC
:1004B000BE01655F7F4F812F90E00E94280760E0BA
:1004C00080E00E94A9008FE291E00E94BB00CE0173
:1004D00001960E94BB0088E591E00E94BB00CE011E
:1004E00006960E94BB008FE091E00E94BB0061E095
:1004F00080E00E94A90085E291E00E94BB00CE014D
:100500000B960E94BB0085E091E00E94BB002F96F5
:100510000FB6F894DEBF0FBECDBFDF91CF911F9114
:100520000F9108951F93CF93DF93CDB7DEB72A972E
:100530000FB6F894DEBF0FBECDBF162F95E0E5E1F4
:10054000F1E0DE01119601900D929A95E1F795E0A8
:10055000E5E1F1E0DE01169601900D929A95E1F742
:100560004AE0BE016F5F7F4F90E00E9428074AE09B
:10057000BE016A5F7F4F812F90E00E94280760E0F4
:1005800080E00E94A9008BE391E00E94BB00CE01B5
:1005900001960E94BB0085E091E00E94BB0061E0F3
:1005A00080E00E94A90085E291E00E94BB00CE019C
:1005B00006960E94BB0085E091E00E94BB002A964F
:1005C0000FB6F894DEBF0FBECDBFDF91CF911F9164
:1005D00008951F93CF93DF93CDB7DEB72A970FB659
:1005E000F894DEBF0FBECDBF162F95E0E5E1F1E038
:1005F000DE01119601900D929A95E1F795E0E5E103
:10060000F1E0DE01169601900D929A95E1F74AE02D
:10061000BE016F5F7F4F90E00E9428074AE0BE0155
:100620006A5F7F4F812F90E00E94280760E080E0A2
:100630000E94A9008BE391E00E94BB00CE010196CD
:100640000E94BB0085E091E00E94BB0061E080E079
:100650000E94A90085E291E00E94BB00CE010696AF
:100660000E94BB0085E091E00E94BB002A960FB675
:10067000F894DEBF0FBECDBFDF91CF911F910895DB
:100680008CE00E94CB000E9454050E94530060E061
:1006900080E00E94A90089E491E00E94BB00E1E8AB
:1006A000F0E080818B7F8083808183608083EFE6B0
:1006B000F0E0808181608083E1EBF0E08081876001
:1006C0008083E0E7F0E080818160808378942091EE
:1006D0006101409162016091690180916B010E940A
:1006E0000D01F5CF1F920F920FB60F9211242F9389
:1006F0003F934F935F936F937F938F939F93AF93AA
:10070000BF93EF93FF9388EB0E94630580E00E9404
:1007100081050E94A20589EB0E9463050E948C0559
:1007200080936B010E948C0580936A010E948C0566
:10073000809369010E948C05809368010E9497054F
:10074000809367010E94A205FF91EF91BF91AF9145
:100750009F918F917F916F915F914F913F912F91D9
:100760000F900FBE0F901F9018951F920F920FB60B
:100770000F921124CF92DF92EF92FF922F933F932B
:100780004F935F936F937F938F939F93AF93BF9399
:10079000CF93EF93FF9380915A018F5F823318F4C8
:1007A00080935A0129C110925A016091630170919E
:1007B000640180E090E00E942D0620E030E048ECEB
:1007C0005DE30E9493066B017C016091650170916D
:1007D000660180E090E00E942D0620E030E048ECC9
:1007E0005DE30E9493060E94FE05C62F609362019E
:1007F000C701B6010E94FE05862F609361019091AA
:100800000001933009F45FC028F4913051F0923028
:1008100029F1EFC0943009F48BC0953009F4B9C0C8
:10082000E8C0262F4C2F6091690180916B010E94D6
:100830000D0180915F01909160018333910520F457
:1008400082E080930001D8C0855491408A3C910594
:1008500008F0D2C085E080930001CEC040915E01D7
:1008600060916A0180916B010E94AC0180915F01EF
:10087000909160018333910520F483E0809300011F
:10088000BBC09C01255431402A3C310520F481E055
:1008900080930001B1C09C01235331092B373105EE
:1008A00030F480915E018F5F80935E01A5C08E5A07
:1008B00091098739910508F09FC080915E018150B0
:1008C00080935E0199C040915D01609168018091C3
:1008D00069010E941F0280915F0190916001833342
:1008E000910520F484E08093000186C09C0125548A
:1008F00031402A3C310520F482E0809300017CC025
:100900009C01235331092B37310530F480915D016F
:100910008F5F80935D0170C08E5A91098739910570
:1009200008F06AC080915D01815080935D0164C0D0
:1009300060915C018C2F0E94920280915F019091E6
:1009400060018333910520F485E08093000154C059
:100950009C01255431402A3C310520F483E08093EA
:1009600000014AC09C01235331092B37310530F473
:1009700080915C018F5F80935C013EC08E5A91092B
:1009800087399105C8F580915C01815080935C01A5
:1009900033C060915B010E94E90280915F019091F8
:1009A00060018333910520F481E08093000124C02D
:1009B0009C01255431402A3C310520F484E0809389
:1009C00000011AC09C01235331092B37310530F443
:1009D00080915B018F5F80935B010EC08E5A9109FD
:1009E0008739910548F480915B01815080935B01C8
:1009F00003C081E080930001EAE7F0E08081806439
:100A00008083FF91EF91CF91BF91AF919F918F9193
:100A10007F916F915F914F913F912F91FF90EF9058
:100A2000DF90CF900F900FBE0F901F9018951F92E0
:100A30000F920FB60F9211248F939F9380917C0099
:100A4000813481F08234D1F0803421F580917800B6
:100A500090917900909366018093650181E4809381
:100A60007C001BC080917800909179009093640184
:100A70008093630182E480937C000FC080917800B2
:100A8000909179009093600180935F0180E480935E
:100A90007C0003C080E480937C009F918F910F9035
:100AA0000FBE0F901F90189587B18F7C87B988B1C2
:100AB000806388B9E9EBF0E080818C7F808388E9EE
:100AC0008093B800089594EA9093BC00ECEBF0E0BA
:100AD00090819923ECF78093BB0084E88093BC005D
:100AE000ECEBF0E080818823ECF79091B900987FDF
:100AF000983129F081E0903419F480E0089580E085
:100B000008958093BB0084E88093BC00ECEBF0E098
:100B100080818823ECF7089584EC8093BC00ECEB93
:100B2000F0E080818823ECF78091BB00089584E891
:100B30008093BC00ECEBF0E080818823ECF780919F
:100B4000BB00089584E98093BC0008951F920F9222
:100B50000FB60F9211242F938F939F93EF93FF93D0
:100B60008091C0002091C6008C71E0916E01EF5F12
:100B7000EF7190916D01E91739F0E0936E01F0E0AB
:100B8000EF58FE4F208301C082E090916C01892BC9
:100B900080936C01FF91EF919F918F912F910F9016
:100BA0000FBE0F901F9018951F920F920FB60F92C5
:100BB00011248F939F93EF93FF93909170018091F5
:100BC0006F01981769F0E0916F01EF5FEF71E093AB
:100BD0006F01F0E0EF56FE4F80818093C60005C0A4
:100BE000E1ECF0E080818F7D8083FF91EF919F9118
:100BF0008F910F900FBE0F901F9018950E94720654
:100C000088F09F5798F0B92F9927B751B0F0E1F0CD
:100C1000660F771F881F991F1AF0BA95C9F714C07D
:100C2000B13091F00E948C06B1E008950C948C06CE
:100C3000672F782F8827B85F39F0B93FCCF38695B6
:100C400077956795B395D9F73EF490958095709513
:100C500061957F4F8F4F9F4F0895E89409C097FB90
:100C60003EF490958095709561957F4F8F4F9F4F83
:100C70009923A9F0F92F96E9BB279395F6958795C7
:100C800077956795B795F111F8CFFAF4BB0F11F48A
:100C900060FF1BC06F5F7F4F8F4F9F4F16C0882331
:100CA00011F096E911C0772321F09EE8872F762F67
:100CB00005C0662371F096E8862F70E060E02AF0A8
:100CC0009A95660F771F881FDAF7880F9695879594
:100CD00097F9089557FD9058440F551F59F05F3FFD
:100CE00071F04795880F97FB991F61F09F3F79F04E
:100CF00087950895121613061406551FF2CF4695D0
:100D0000F1DF08C0161617061806991FF1CF869551
:100D10007105610508940895E894BB276627772735
:100D2000CB0197F908950E94A6060C9417070E941C
:100D3000090738F00E94100720F0952311F00C9459
:100D400000070C94060711240C948D060E946A0675
:100D500070F3959FC1F3950F50E0551F629FF0010E
:100D6000729FBB27F00DB11D639FAA27F00DB11D27
:100D7000AA1F649F6627B00DA11D661F829F2227B0
:100D8000B00DA11D621F739FB00DA11D621F839F37
:100D9000A00D611D221F749F3327A00D611D231F0D
:100DA000849F600D211D822F762F6A2F11249F575B
:100DB00050409AF0F1F088234AF0EE0FFF1FBB1F5E
:100DC000661F771F881F91505040A9F79E3F51051D
:100DD00080F00C9400070C948D065F3FE4F3983E7E
:100DE000D4F3869577956795B795F795E7959F5FC7
:100DF000C1F7FE2B880F911D9695879597F9089559
:100E000097F99F6780E870E060E008959FEF80ECBD
:100E1000089500240A941616170618060906089560
:100E200000240A9412161306140605060895092EC6
:100E30000394000C11F4882352F0BB0F40F4BF2B35
:100E400011F460FF04C06F5F7F4F8F4F9F4F089575
:100E5000BB274A3031F4992322F4BDE29095819565
:100E60009F4F0C943407BB27FB015527AA27880FF7
:100E7000991FAA1FA41710F0A41B83955051B9F70E
:100E8000A05DAA3308F0A95DA193009779F7B1118D
:100E9000B1931192CB010C944D07DC01FC01672F3B
:100EA00071917723E1F7329704C07C916D93708341
:0E0EB0006291AE17BF07C8F30895F894FFCF04
:100EBE000141483A002500534D3A0041543A00434F
:100ECE00004C4C3A00303030300041697220487589
:100EDE006D2E3A20004E6F6D696E616C3A200041A6
:100EEE0069722054656D702E3A2000536F696C2024
:100EFE004D6F6973742E3A2000496E697469616C86
:0A0F0E00697A6174696F6E2E2E007F
:00000001FF
